{
    "contractName": "AstroWorld",
    "abi": [
        {
            "inputs": [],
            "stateMutability": "nonpayable",
            "type": "constructor"
        },
        {
            "anonymous": false,
            "inputs": [
                {
                    "indexed": true,
                    "internalType": "address",
                    "name": "owner",
                    "type": "address"
                },
                {
                    "indexed": true,
                    "internalType": "address",
                    "name": "approved",
                    "type": "address"
                },
                {
                    "indexed": true,
                    "internalType": "uint256",
                    "name": "tokenId",
                    "type": "uint256"
                }
            ],
            "name": "Approval",
            "type": "event"
        },
        {
            "anonymous": false,
            "inputs": [
                {
                    "indexed": true,
                    "internalType": "address",
                    "name": "owner",
                    "type": "address"
                },
                {
                    "indexed": true,
                    "internalType": "address",
                    "name": "operator",
                    "type": "address"
                },
                {
                    "indexed": false,
                    "internalType": "bool",
                    "name": "approved",
                    "type": "bool"
                }
            ],
            "name": "ApprovalForAll",
            "type": "event"
        },
        {
            "anonymous": false,
            "inputs": [
                {
                    "indexed": true,
                    "internalType": "address",
                    "name": "from",
                    "type": "address"
                },
                {
                    "indexed": true,
                    "internalType": "address",
                    "name": "to",
                    "type": "address"
                },
                {
                    "indexed": true,
                    "internalType": "uint256",
                    "name": "tokenId",
                    "type": "uint256"
                }
            ],
            "name": "Transfer",
            "type": "event"
        },
        {
            "inputs": [],
            "name": "AstroTestPass",
            "outputs": [
                {
                    "internalType": "uint256",
                    "name": "",
                    "type": "uint256"
                }
            ],
            "stateMutability": "nonpayable",
            "type": "function"
        },
        {
            "inputs": [
                {
                    "internalType": "address",
                    "name": "to",
                    "type": "address"
                },
                {
                    "internalType": "uint256",
                    "name": "tokenId",
                    "type": "uint256"
                }
            ],
            "name": "approve",
            "outputs": [],
            "stateMutability": "nonpayable",
            "type": "function"
        },
        {
            "inputs": [
                {
                    "internalType": "address",
                    "name": "owner",
                    "type": "address"
                }
            ],
            "name": "balanceOf",
            "outputs": [
                {
                    "internalType": "uint256",
                    "name": "",
                    "type": "uint256"
                }
            ],
            "stateMutability": "view",
            "type": "function"
        },
        {
            "inputs": [],
            "name": "baseURI",
            "outputs": [
                {
                    "internalType": "string",
                    "name": "",
                    "type": "string"
                }
            ],
            "stateMutability": "view",
            "type": "function"
        },
        {
            "inputs": [],
            "name": "contractURI",
            "outputs": [
                {
                    "internalType": "string",
                    "name": "",
                    "type": "string"
                }
            ],
            "stateMutability": "pure",
            "type": "function"
        },
        {
            "inputs": [
                {
                    "internalType": "uint256",
                    "name": "tokenId",
                    "type": "uint256"
                }
            ],
            "name": "getApproved",
            "outputs": [
                {
                    "internalType": "address",
                    "name": "",
                    "type": "address"
                }
            ],
            "stateMutability": "view",
            "type": "function"
        },
        {
            "inputs": [
                {
                    "internalType": "address",
                    "name": "owner",
                    "type": "address"
                },
                {
                    "internalType": "address",
                    "name": "operator",
                    "type": "address"
                }
            ],
            "name": "isApprovedForAll",
            "outputs": [
                {
                    "internalType": "bool",
                    "name": "",
                    "type": "bool"
                }
            ],
            "stateMutability": "view",
            "type": "function"
        },
        {
            "inputs": [],
            "name": "name",
            "outputs": [
                {
                    "internalType": "string",
                    "name": "",
                    "type": "string"
                }
            ],
            "stateMutability": "view",
            "type": "function"
        },
        {
            "inputs": [
                {
                    "internalType": "uint256",
                    "name": "tokenId",
                    "type": "uint256"
                }
            ],
            "name": "ownerOf",
            "outputs": [
                {
                    "internalType": "address",
                    "name": "",
                    "type": "address"
                }
            ],
            "stateMutability": "view",
            "type": "function"
        },
        {
            "inputs": [
                {
                    "internalType": "address",
                    "name": "from",
                    "type": "address"
                },
                {
                    "internalType": "address",
                    "name": "to",
                    "type": "address"
                },
                {
                    "internalType": "uint256",
                    "name": "tokenId",
                    "type": "uint256"
                }
            ],
            "name": "safeTransferFrom",
            "outputs": [],
            "stateMutability": "nonpayable",
            "type": "function"
        },
        {
            "inputs": [
                {
                    "internalType": "address",
                    "name": "from",
                    "type": "address"
                },
                {
                    "internalType": "address",
                    "name": "to",
                    "type": "address"
                },
                {
                    "internalType": "uint256",
                    "name": "tokenId",
                    "type": "uint256"
                },
                {
                    "internalType": "bytes",
                    "name": "_data",
                    "type": "bytes"
                }
            ],
            "name": "safeTransferFrom",
            "outputs": [],
            "stateMutability": "nonpayable",
            "type": "function"
        },
        {
            "inputs": [
                {
                    "internalType": "address",
                    "name": "operator",
                    "type": "address"
                },
                {
                    "internalType": "bool",
                    "name": "approved",
                    "type": "bool"
                }
            ],
            "name": "setApprovalForAll",
            "outputs": [],
            "stateMutability": "nonpayable",
            "type": "function"
        },
        {
            "inputs": [
                {
                    "internalType": "bytes4",
                    "name": "interfaceId",
                    "type": "bytes4"
                }
            ],
            "name": "supportsInterface",
            "outputs": [
                {
                    "internalType": "bool",
                    "name": "",
                    "type": "bool"
                }
            ],
            "stateMutability": "view",
            "type": "function"
        },
        {
            "inputs": [],
            "name": "symbol",
            "outputs": [
                {
                    "internalType": "string",
                    "name": "",
                    "type": "string"
                }
            ],
            "stateMutability": "view",
            "type": "function"
        },
        {
            "inputs": [
                {
                    "internalType": "uint256",
                    "name": "index",
                    "type": "uint256"
                }
            ],
            "name": "tokenByIndex",
            "outputs": [
                {
                    "internalType": "uint256",
                    "name": "",
                    "type": "uint256"
                }
            ],
            "stateMutability": "view",
            "type": "function"
        },
        {
            "inputs": [
                {
                    "internalType": "address",
                    "name": "owner",
                    "type": "address"
                },
                {
                    "internalType": "uint256",
                    "name": "index",
                    "type": "uint256"
                }
            ],
            "name": "tokenOfOwnerByIndex",
            "outputs": [
                {
                    "internalType": "uint256",
                    "name": "",
                    "type": "uint256"
                }
            ],
            "stateMutability": "view",
            "type": "function"
        },
        {
            "inputs": [
                {
                    "internalType": "uint256",
                    "name": "tokenId",
                    "type": "uint256"
                }
            ],
            "name": "tokenURI",
            "outputs": [
                {
                    "internalType": "string",
                    "name": "",
                    "type": "string"
                }
            ],
            "stateMutability": "view",
            "type": "function"
        },
        {
            "inputs": [],
            "name": "totalSupply",
            "outputs": [
                {
                    "internalType": "uint256",
                    "name": "",
                    "type": "uint256"
                }
            ],
            "stateMutability": "view",
            "type": "function"
        },
        {
            "inputs": [
                {
                    "internalType": "address",
                    "name": "from",
                    "type": "address"
                },
                {
                    "internalType": "address",
                    "name": "to",
                    "type": "address"
                },
                {
                    "internalType": "uint256",
                    "name": "tokenId",
                    "type": "uint256"
                }
            ],
            "name": "transferFrom",
            "outputs": [],
            "stateMutability": "nonpayable",
            "type": "function"
        }
    ],
    "bytecode": "60806040523480156200001157600080fd5b50604080518082018252600a815269576f726c64205061737360b01b60208083019190915282518084019093526009835268574f524c44f09f8eab60b81b90830152906200006f6301ffc9a760e01b6001600160e01b03620000f416565b81516200008490600690602085019062000179565b5080516200009a90600790602084019062000179565b50620000b66380ac58cd60e01b6001600160e01b03620000f416565b620000d1635b5e139f60e01b6001600160e01b03620000f416565b620000ec63780e9d6360e01b6001600160e01b03620000f416565b50506200021e565b6001600160e01b0319808216141562000154576040805162461bcd60e51b815260206004820152601c60248201527f4552433136353a20696e76616c696420696e7465726661636520696400000000604482015290519081900360640190fd5b6001600160e01b0319166000908152602081905260409020805460ff19166001179055565b828054600181600116156101000203166002900490600052602060002090601f016020900481019282601f10620001bc57805160ff1916838001178555620001ec565b82800160010185558215620001ec579182015b82811115620001ec578251825591602001919060010190620001cf565b50620001fa929150620001fe565b5090565b6200021b91905b80821115620001fa576000815560010162000205565b90565b611d92806200022e6000396000f3fe608060405234801561001057600080fd5b50600436106101215760003560e01c80634f6ccce7116100ad578063a22cb46511610071578063a22cb4651461036f578063b88d4fde1461039d578063c87b56dd14610463578063e8a3d48514610480578063e985e9c51461048857610121565b80634f6ccce7146102ff5780636352211e1461031c5780636c0360eb1461033957806370a082311461034157806395d89b411461036757610121565b806318160ddd116100f457806318160ddd1461024557806323b872dd1461025f5780632f745c59146102955780633b80fb19146102c157806342842e0e146102c957610121565b806301ffc9a71461012657806306fdde0314610161578063081812fc146101de578063095ea7b314610217575b600080fd5b61014d6004803603602081101561013c57600080fd5b50356001600160e01b0319166104b6565b604080519115158252519081900360200190f35b6101696104d9565b6040805160208082528351818301528351919283929083019185019080838360005b838110156101a357818101518382015260200161018b565b50505050905090810190601f1680156101d05780820380516001836020036101000a031916815260200191505b509250505060405180910390f35b6101fb600480360360208110156101f457600080fd5b5035610570565b604080516001600160a01b039092168252519081900360200190f35b6102436004803603604081101561022d57600080fd5b506001600160a01b0381351690602001356105d2565b005b61024d6106ad565b60408051918252519081900360200190f35b6102436004803603606081101561027557600080fd5b506001600160a01b038135811691602081013590911690604001356106be565b61024d600480360360408110156102ab57600080fd5b506001600160a01b038135169060200135610715565b61024d610746565b610243600480360360608110156102df57600080fd5b506001600160a01b0381358116916020810135909116906040013561078c565b61024d6004803603602081101561031557600080fd5b50356107a7565b6101fb6004803603602081101561033257600080fd5b50356107c3565b6101696107f1565b61024d6004803603602081101561035757600080fd5b50356001600160a01b0316610852565b6101696108ba565b6102436004803603604081101561038557600080fd5b506001600160a01b038135169060200135151561091b565b610243600480360360808110156103b357600080fd5b6001600160a01b038235811692602081013590911691604082013591908101906080810160608201356401000000008111156103ee57600080fd5b82018360208201111561040057600080fd5b8035906020019184600183028401116401000000008311171561042257600080fd5b91908080601f016020809104026020016040519081016040528093929190818152602001838380828437600092019190915250929550610a20945050505050565b6101696004803603602081101561047957600080fd5b5035610a7e565b610169610d25565b61014d6004803603604081101561049e57600080fd5b506001600160a01b0381358116916020013516610d45565b6001600160e01b0319811660009081526020819052604090205460ff165b919050565b60068054604080516020601f60026000196101006001881615020190951694909404938401819004810282018101909252828152606093909290918301828280156105655780601f1061053a57610100808354040283529160200191610565565b820191906000526020600020905b81548152906001019060200180831161054857829003601f168201915b505050505090505b90565b600061057b82610d73565b6105b65760405162461bcd60e51b815260040180806020018281038252602c815260200180611c5b602c913960400191505060405180910390fd5b506000908152600460205260409020546001600160a01b031690565b60006105dd826107c3565b9050806001600160a01b0316836001600160a01b031614156106305760405162461bcd60e51b8152600401808060200182810382526021815260200180611d0b6021913960400191505060405180910390fd5b806001600160a01b0316610642610d86565b6001600160a01b0316148061066357506106638161065e610d86565b610d45565b61069e5760405162461bcd60e51b8152600401808060200182810382526038815260200180611bae6038913960400191505060405180910390fd5b6106a88383610d8a565b505050565b60006106b96002610df8565b905090565b6106cf6106c9610d86565b82610e03565b61070a5760405162461bcd60e51b8152600401808060200182810382526031815260200180611d2c6031913960400191505060405180910390fd5b6106a8838383610ea7565b6001600160a01b038216600090815260016020526040812061073d908363ffffffff61100516565b90505b92915050565b6000610752600a611011565b600061075e600a61101a565b905061076a338261101e565b6106b9816040518060800160405280605f8152602001611b23605f9139611158565b6106a883838360405180602001604052806000815250610a20565b6000806107bb60028463ffffffff6111bb16565b509392505050565b600061074082604051806060016040528060298152602001611c10602991396002919063ffffffff6111d716565b60098054604080516020601f60026000196101006001881615020190951694909404938401819004810282018101909252828152606093909290918301828280156105655780601f1061053a57610100808354040283529160200191610565565b60006001600160a01b0382166108995760405162461bcd60e51b815260040180806020018281038252602a815260200180611be6602a913960400191505060405180910390fd5b6001600160a01b038216600090815260016020526040902061074090610df8565b60078054604080516020601f60026000196101006001881615020190951694909404938401819004810282018101909252828152606093909290918301828280156105655780601f1061053a57610100808354040283529160200191610565565b610923610d86565b6001600160a01b0316826001600160a01b03161415610989576040805162461bcd60e51b815260206004820152601960248201527f4552433732313a20617070726f766520746f2063616c6c657200000000000000604482015290519081900360640190fd5b8060056000610996610d86565b6001600160a01b03908116825260208083019390935260409182016000908120918716808252919093529120805460ff1916921515929092179091556109da610d86565b60408051841515815290516001600160a01b0392909216917f17307eab39ab6107e8899845ad3d59bd9653f200f220920489ca2b5937696c319181900360200190a35050565b610a31610a2b610d86565b83610e03565b610a6c5760405162461bcd60e51b8152600401808060200182810382526031815260200180611d2c6031913960400191505060405180910390fd5b610a78848484846111ee565b50505050565b6060610a8982610d73565b610ac45760405162461bcd60e51b815260040180806020018281038252602f815260200180611cdc602f913960400191505060405180910390fd5b60008281526008602090815260409182902080548351601f6002600019610100600186161502019093169290920491820184900484028101840190945280845260609392830182828015610b595780601f10610b2e57610100808354040283529160200191610b59565b820191906000526020600020905b815481529060010190602001808311610b3c57829003601f168201915b505060095493945050505060026000196101006001841615020190911604610b825790506104d4565b805115610c53576009816040516020018083805460018160011615610100020316600290048015610bea5780601f10610bc8576101008083540402835291820191610bea565b820191906000526020600020905b815481529060010190602001808311610bd6575b5050825160208401908083835b60208310610c165780518252601f199092019160209182019101610bf7565b6001836020036101000a038019825116818451168082178552505050505050905001925050506040516020818303038152906040529150506104d4565b6009610c5e84611240565b6040516020018083805460018160011615610100020316600290048015610cbc5780601f10610c9a576101008083540402835291820191610cbc565b820191906000526020600020905b815481529060010190602001808311610ca8575b5050825160208401908083835b60208310610ce85780518252601f199092019160209182019101610cc9565b6001836020036101000a03801982511681845116808217855250505050505090500192505050604051602081830303815290604052915050919050565b60606040518060800160405280605a8152602001611a73605a9139905090565b6001600160a01b03918216600090815260056020908152604080832093909416825291909152205460ff1690565b600061074060028363ffffffff61130416565b3390565b600081815260046020526040902080546001600160a01b0319166001600160a01b0384169081179091558190610dbf826107c3565b6001600160a01b03167f8c5be1e5ebec7d5bd14f71427d1e84f3dd0314c0f7b2291e5b200ac8c7c3b92560405160405180910390a45050565b60006107408261101a565b6000610e0e82610d73565b610e495760405162461bcd60e51b815260040180806020018281038252602c815260200180611b82602c913960400191505060405180910390fd5b6000610e54836107c3565b9050806001600160a01b0316846001600160a01b03161480610e8f5750836001600160a01b0316610e8484610570565b6001600160a01b0316145b80610e9f5750610e9f8185610d45565b949350505050565b826001600160a01b0316610eba826107c3565b6001600160a01b031614610eff5760405162461bcd60e51b8152600401808060200182810382526029815260200180611cb36029913960400191505060405180910390fd5b6001600160a01b038216610f445760405162461bcd60e51b8152600401808060200182810382526024815260200180611aff6024913960400191505060405180910390fd5b610f4f8383836106a8565b610f5a600082610d8a565b6001600160a01b0383166000908152600160205260409020610f82908263ffffffff61131016565b506001600160a01b0382166000908152600160205260409020610fab908263ffffffff61131c16565b50610fbe6002828463ffffffff61132816565b5080826001600160a01b0316846001600160a01b03167fddf252ad1be2c89b69c2b068fc378daa952ba7f163c4a11628f55a4df523b3ef60405160405180910390a4505050565b600061073d838361133e565b80546001019055565b5490565b6001600160a01b038216611079576040805162461bcd60e51b815260206004820181905260248201527f4552433732313a206d696e7420746f20746865207a65726f2061646472657373604482015290519081900360640190fd5b61108281610d73565b156110d4576040805162461bcd60e51b815260206004820152601c60248201527f4552433732313a20746f6b656e20616c7265616479206d696e74656400000000604482015290519081900360640190fd5b6110e0600083836106a8565b6001600160a01b0382166000908152600160205260409020611108908263ffffffff61131c16565b5061111b6002828463ffffffff61132816565b5060405181906001600160a01b038416906000907fddf252ad1be2c89b69c2b068fc378daa952ba7f163c4a11628f55a4df523b3ef908290a45050565b61116182610d73565b61119c5760405162461bcd60e51b815260040180806020018281038252602c815260200180611c87602c913960400191505060405180910390fd5b600082815260086020908152604090912082516106a8928401906119b8565b60008080806111ca86866113a2565b9097909650945050505050565b60006111e484848461141d565b90505b9392505050565b6111f9848484610ea7565b611205848484846114e7565b610a785760405162461bcd60e51b8152600401808060200182810382526032815260200180611acd6032913960400191505060405180910390fd5b60608161126557506040805180820190915260018152600360fc1b60208201526104d4565b8160005b811561127d57600101600a82049150611269565b6060816040519080825280601f01601f1916602001820160405280156112aa576020820181803683370190505b50859350905060001982015b83156112fb57600a840660300160f81b828280600190039350815181106112d957fe5b60200101906001600160f81b031916908160001a905350600a840493506112b6565b50949350505050565b600061073d8383611667565b600061073d838361167f565b600061073d8383611745565b60006111e484846001600160a01b03851661178f565b815460009082106113805760405162461bcd60e51b8152600401808060200182810382526022815260200180611a516022913960400191505060405180910390fd5b82600001828154811061138f57fe5b9060005260206000200154905092915050565b8154600090819083106113e65760405162461bcd60e51b8152600401808060200182810382526022815260200180611c396022913960400191505060405180910390fd5b60008460000184815481106113f757fe5b906000526020600020906002020190508060000154816001015492509250509250929050565b600082815260018401602052604081205482816114b85760405162461bcd60e51b81526004018080602001828103825283818151815260200191508051906020019080838360005b8381101561147d578181015183820152602001611465565b50505050905090810190601f1680156114aa5780820380516001836020036101000a031916815260200191505b509250505060405180910390fd5b508460000160018203815481106114cb57fe5b9060005260206000209060020201600101549150509392505050565b60006114fb846001600160a01b0316611826565b61150757506001610e9f565b606061162d630a85bd0160e11b61151c610d86565b88878760405160240180856001600160a01b03166001600160a01b03168152602001846001600160a01b03166001600160a01b0316815260200183815260200180602001828103825283818151815260200191508051906020019080838360005b8381101561159557818101518382015260200161157d565b50505050905090810190601f1680156115c25780820380516001836020036101000a031916815260200191505b5095505050505050604051602081830303815290604052906001600160e01b0319166020820180516001600160e01b038381831617835250505050604051806060016040528060328152602001611acd603291396001600160a01b038816919063ffffffff61182c16565b9050600081806020019051602081101561164657600080fd5b50516001600160e01b031916630a85bd0160e11b1492505050949350505050565b60009081526001919091016020526040902054151590565b6000818152600183016020526040812054801561173b57835460001980830191908101906000908790839081106116b257fe5b90600052602060002001549050808760000184815481106116cf57fe5b6000918252602080832090910192909255828152600189810190925260409020908401905586548790806116ff57fe5b60019003818190600052602060002001600090559055866001016000878152602001908152602001600020600090556001945050505050610740565b6000915050610740565b60006117518383611667565b61178757508154600181810184556000848152602080822090930184905584548482528286019093526040902091909155610740565b506000610740565b6000828152600184016020526040812054806117f45750506040805180820182528381526020808201848152865460018181018955600089815284812095516002909302909501918255915190820155865486845281880190925292909120556111e7565b8285600001600183038154811061180757fe5b90600052602060002090600202016001018190555060009150506111e7565b3b151590565b60606111e484846000858561184085611826565b611891576040805162461bcd60e51b815260206004820152601d60248201527f416464726573733a2063616c6c20746f206e6f6e2d636f6e7472616374000000604482015290519081900360640190fd5b60006060866001600160a01b031685876040518082805190602001908083835b602083106118d05780518252601f1990920191602091820191016118b1565b6001836020036101000a03801982511681845116808217855250505050505090500191505060006040518083038185875af1925050503d8060008114611932576040519150601f19603f3d011682016040523d82523d6000602084013e611937565b606091505b5091509150611947828286611952565b979650505050505050565b606083156119615750816111e7565b8251156119715782518084602001fd5b60405162461bcd60e51b815260206004820181815284516024840152845185939192839260440191908501908083836000831561147d578181015183820152602001611465565b828054600181600116156101000203166002900490600052602060002090601f016020900481019282601f106119f957805160ff1916838001178555611a26565b82800160010185558215611a26579182015b82811115611a26578251825591602001919060010190611a0b565b50611a32929150611a36565b5090565b61056d91905b80821115611a325760008155600101611a3c56fe456e756d657261626c655365743a20696e646578206f7574206f6620626f756e647368747470733a2f2f6d6965677173796a63626f666b786874746c6b772e73757061626173652e696e2f73746f726167652f76312f6f626a6563742f7075626c69632f617374726f706173732f46726f6e74506173732e6a736f6e4552433732313a207472616e7366657220746f206e6f6e20455243373231526563656976657220696d706c656d656e7465724552433732313a207472616e7366657220746f20746865207a65726f206164647265737368747470733a2f2f6d6965677173796a63626f666b786874746c6b772e73757061626173652e696e2f73746f726167652f76312f6f626a6563742f7075626c69632f617374726f706173732f617374726f776f726c64706173732e6a736f6e4552433732313a206f70657261746f7220717565727920666f72206e6f6e6578697374656e7420746f6b656e4552433732313a20617070726f76652063616c6c6572206973206e6f74206f776e6572206e6f7220617070726f76656420666f7220616c6c4552433732313a2062616c616e636520717565727920666f7220746865207a65726f20616464726573734552433732313a206f776e657220717565727920666f72206e6f6e6578697374656e7420746f6b656e456e756d657261626c654d61703a20696e646578206f7574206f6620626f756e64734552433732313a20617070726f76656420717565727920666f72206e6f6e6578697374656e7420746f6b656e4552433732314d657461646174613a2055524920736574206f66206e6f6e6578697374656e7420746f6b656e4552433732313a207472616e73666572206f6620746f6b656e2074686174206973206e6f74206f776e4552433732314d657461646174613a2055524920717565727920666f72206e6f6e6578697374656e7420746f6b656e4552433732313a20617070726f76616c20746f2063757272656e74206f776e65724552433732313a207472616e736665722063616c6c6572206973206e6f74206f776e6572206e6f7220617070726f766564a26469706673582212203c125bae5cdd2f0ed9042efa113e1c10773e777a747d4c15d550886d30e6f8b064736f6c63430006040033",
    "sourcePath": "/Users/coreymayweather/Downloads/public/astroinfo/Contracts/ERC721 FOLDER/AstroWorldNFT.sol",
    "compiler": {
        "name": "solc",
        "version": "0.6.4+commit.1dca32f3"
    },
    "functionHashes": {
        "AstroTestPass()": "3b80fb19",
        "approve(address,uint256)": "095ea7b3",
        "balanceOf(address)": "70a08231",
        "baseURI()": "6c0360eb",
        "contractURI()": "e8a3d485",
        "getApproved(uint256)": "081812fc",
        "isApprovedForAll(address,address)": "e985e9c5",
        "name()": "06fdde03",
        "ownerOf(uint256)": "6352211e",
        "safeTransferFrom(address,address,uint256)": "42842e0e",
        "safeTransferFrom(address,address,uint256,bytes)": "b88d4fde",
        "setApprovalForAll(address,bool)": "a22cb465",
        "supportsInterface(bytes4)": "01ffc9a7",
        "symbol()": "95d89b41",
        "tokenByIndex(uint256)": "4f6ccce7",
        "tokenOfOwnerByIndex(address,uint256)": "2f745c59",
        "tokenURI(uint256)": "c87b56dd",
        "totalSupply()": "18160ddd",
        "transferFrom(address,address,uint256)": "23b872dd"
    },
    "gasEstimates": {
        "creation": {
            "codeDepositCost": "1514000",
            "executionCost": "infinite",
            "totalCost": "infinite"
        },
        "external": {
            "AstroTestPass()": "infinite",
            "approve(address,uint256)": "infinite",
            "balanceOf(address)": "infinite",
            "baseURI()": "infinite",
            "contractURI()": "infinite",
            "getApproved(uint256)": "infinite",
            "isApprovedForAll(address,address)": "1372",
            "name()": "infinite",
            "ownerOf(uint256)": "infinite",
            "safeTransferFrom(address,address,uint256)": "infinite",
            "safeTransferFrom(address,address,uint256,bytes)": "infinite",
            "setApprovalForAll(address,bool)": "infinite",
            "supportsInterface(bytes4)": "1196",
            "symbol()": "infinite",
            "tokenByIndex(uint256)": "infinite",
            "tokenOfOwnerByIndex(address,uint256)": "infinite",
            "tokenURI(uint256)": "infinite",
            "totalSupply()": "1096",
            "transferFrom(address,address,uint256)": "infinite"
        }
    }
}